{
  "_format": "hh3-artifact-1",
  "contractName": "WomenSavingsPool",
  "sourceName": "contracts/WomenSavingsPool.sol",
  "abi": [
    {
      "inputs": [
        {
          "internalType": "uint256",
          "name": "_contributionAmount",
          "type": "uint256"
        },
        {
          "internalType": "uint256",
          "name": "_cycleDurationSeconds",
          "type": "uint256"
        },
        {
          "internalType": "uint256",
          "name": "_maxMembers",
          "type": "uint256"
        }
      ],
      "stateMutability": "nonpayable",
      "type": "constructor"
    },
    {
      "inputs": [],
      "name": "AlreadyMember",
      "type": "error"
    },
    {
      "inputs": [],
      "name": "CycleNotComplete",
      "type": "error"
    },
    {
      "inputs": [],
      "name": "InvalidAmount",
      "type": "error"
    },
    {
      "inputs": [],
      "name": "InvalidCycleDuration",
      "type": "error"
    },
    {
      "inputs": [],
      "name": "InvalidMaxMembers",
      "type": "error"
    },
    {
      "inputs": [],
      "name": "NoFundsToWithdraw",
      "type": "error"
    },
    {
      "inputs": [],
      "name": "NotMember",
      "type": "error"
    },
    {
      "inputs": [],
      "name": "OnlyOrganizer",
      "type": "error"
    },
    {
      "inputs": [],
      "name": "PoolClosedError",
      "type": "error"
    },
    {
      "inputs": [],
      "name": "PoolFull",
      "type": "error"
    },
    {
      "inputs": [],
      "name": "PoolPausedError",
      "type": "error"
    },
    {
      "inputs": [],
      "name": "TransferFailed",
      "type": "error"
    },
    {
      "anonymous": false,
      "inputs": [
        {
          "indexed": true,
          "internalType": "address",
          "name": "member",
          "type": "address"
        },
        {
          "indexed": false,
          "internalType": "uint256",
          "name": "amount",
          "type": "uint256"
        },
        {
          "indexed": false,
          "internalType": "uint256",
          "name": "cycle",
          "type": "uint256"
        }
      ],
      "name": "ContributionReceived",
      "type": "event"
    },
    {
      "anonymous": false,
      "inputs": [
        {
          "indexed": false,
          "internalType": "uint256",
          "name": "newCycle",
          "type": "uint256"
        }
      ],
      "name": "CycleAdvanced",
      "type": "event"
    },
    {
      "anonymous": false,
      "inputs": [
        {
          "indexed": true,
          "internalType": "address",
          "name": "organizer",
          "type": "address"
        },
        {
          "indexed": false,
          "internalType": "uint256",
          "name": "amount",
          "type": "uint256"
        }
      ],
      "name": "EmergencyWithdraw",
      "type": "event"
    },
    {
      "anonymous": false,
      "inputs": [
        {
          "indexed": true,
          "internalType": "address",
          "name": "member",
          "type": "address"
        },
        {
          "indexed": false,
          "internalType": "uint256",
          "name": "totalMembers",
          "type": "uint256"
        }
      ],
      "name": "MemberJoined",
      "type": "event"
    },
    {
      "anonymous": false,
      "inputs": [
        {
          "indexed": true,
          "internalType": "address",
          "name": "recipient",
          "type": "address"
        },
        {
          "indexed": false,
          "internalType": "uint256",
          "name": "amount",
          "type": "uint256"
        },
        {
          "indexed": false,
          "internalType": "uint256",
          "name": "cycle",
          "type": "uint256"
        }
      ],
      "name": "PayoutSent",
      "type": "event"
    },
    {
      "anonymous": false,
      "inputs": [],
      "name": "PoolClosed",
      "type": "event"
    },
    {
      "anonymous": false,
      "inputs": [
        {
          "indexed": false,
          "internalType": "bool",
          "name": "paused",
          "type": "bool"
        }
      ],
      "name": "PoolPaused",
      "type": "event"
    },
    {
      "stateMutability": "payable",
      "type": "fallback"
    },
    {
      "inputs": [],
      "name": "closePool",
      "outputs": [],
      "stateMutability": "nonpayable",
      "type": "function"
    },
    {
      "inputs": [],
      "name": "contribute",
      "outputs": [],
      "stateMutability": "payable",
      "type": "function"
    },
    {
      "inputs": [],
      "name": "contributionAmount",
      "outputs": [
        {
          "internalType": "uint256",
          "name": "",
          "type": "uint256"
        }
      ],
      "stateMutability": "view",
      "type": "function"
    },
    {
      "inputs": [
        {
          "internalType": "address",
          "name": "",
          "type": "address"
        }
      ],
      "name": "contributionsPaid",
      "outputs": [
        {
          "internalType": "uint256",
          "name": "",
          "type": "uint256"
        }
      ],
      "stateMutability": "view",
      "type": "function"
    },
    {
      "inputs": [],
      "name": "currentCycle",
      "outputs": [
        {
          "internalType": "uint256",
          "name": "",
          "type": "uint256"
        }
      ],
      "stateMutability": "view",
      "type": "function"
    },
    {
      "inputs": [
        {
          "internalType": "uint256",
          "name": "",
          "type": "uint256"
        }
      ],
      "name": "cycleContributed",
      "outputs": [
        {
          "internalType": "bool",
          "name": "",
          "type": "bool"
        }
      ],
      "stateMutability": "view",
      "type": "function"
    },
    {
      "inputs": [],
      "name": "cycleDuration",
      "outputs": [
        {
          "internalType": "uint256",
          "name": "",
          "type": "uint256"
        }
      ],
      "stateMutability": "view",
      "type": "function"
    },
    {
      "inputs": [],
      "name": "emergencyWithdraw",
      "outputs": [],
      "stateMutability": "nonpayable",
      "type": "function"
    },
    {
      "inputs": [],
      "name": "getCurrentRecipient",
      "outputs": [
        {
          "internalType": "address",
          "name": "",
          "type": "address"
        }
      ],
      "stateMutability": "view",
      "type": "function"
    },
    {
      "inputs": [],
      "name": "getMemberCount",
      "outputs": [
        {
          "internalType": "uint256",
          "name": "",
          "type": "uint256"
        }
      ],
      "stateMutability": "view",
      "type": "function"
    },
    {
      "inputs": [],
      "name": "getMembers",
      "outputs": [
        {
          "internalType": "address[]",
          "name": "",
          "type": "address[]"
        }
      ],
      "stateMutability": "view",
      "type": "function"
    },
    {
      "inputs": [],
      "name": "isCycleComplete",
      "outputs": [
        {
          "internalType": "bool",
          "name": "",
          "type": "bool"
        }
      ],
      "stateMutability": "view",
      "type": "function"
    },
    {
      "inputs": [
        {
          "internalType": "address",
          "name": "",
          "type": "address"
        }
      ],
      "name": "isMember",
      "outputs": [
        {
          "internalType": "bool",
          "name": "",
          "type": "bool"
        }
      ],
      "stateMutability": "view",
      "type": "function"
    },
    {
      "inputs": [],
      "name": "join",
      "outputs": [],
      "stateMutability": "payable",
      "type": "function"
    },
    {
      "inputs": [],
      "name": "maxMembers",
      "outputs": [
        {
          "internalType": "uint256",
          "name": "",
          "type": "uint256"
        }
      ],
      "stateMutability": "view",
      "type": "function"
    },
    {
      "inputs": [
        {
          "internalType": "uint256",
          "name": "",
          "type": "uint256"
        }
      ],
      "name": "members",
      "outputs": [
        {
          "internalType": "address",
          "name": "",
          "type": "address"
        }
      ],
      "stateMutability": "view",
      "type": "function"
    },
    {
      "inputs": [],
      "name": "organizer",
      "outputs": [
        {
          "internalType": "address",
          "name": "",
          "type": "address"
        }
      ],
      "stateMutability": "view",
      "type": "function"
    },
    {
      "inputs": [],
      "name": "paused",
      "outputs": [
        {
          "internalType": "bool",
          "name": "",
          "type": "bool"
        }
      ],
      "stateMutability": "view",
      "type": "function"
    },
    {
      "inputs": [],
      "name": "poolClosed",
      "outputs": [
        {
          "internalType": "bool",
          "name": "",
          "type": "bool"
        }
      ],
      "stateMutability": "view",
      "type": "function"
    },
    {
      "inputs": [],
      "name": "processCycle",
      "outputs": [],
      "stateMutability": "nonpayable",
      "type": "function"
    },
    {
      "inputs": [
        {
          "internalType": "bool",
          "name": "_paused",
          "type": "bool"
        }
      ],
      "name": "setPaused",
      "outputs": [],
      "stateMutability": "nonpayable",
      "type": "function"
    },
    {
      "inputs": [],
      "name": "totalPoolBalance",
      "outputs": [
        {
          "internalType": "uint256",
          "name": "",
          "type": "uint256"
        }
      ],
      "stateMutability": "view",
      "type": "function"
    },
    {
      "stateMutability": "payable",
      "type": "receive"
    }
  ],
  "bytecode": "0x608060405234801561000f575f5ffd5b50604051611be9380380611be983398181016040528101906100319190610176565b5f830361006a576040517f2c5211c600000000000000000000000000000000000000000000000000000000815260040160405180910390fd5b5f82036100a3576040517fec68216200000000000000000000000000000000000000000000000000000000815260040160405180910390fd5b5f81036100dc576040517f15f6ef6500000000000000000000000000000000000000000000000000000000815260040160405180910390fd5b335f5f6101000a81548173ffffffffffffffffffffffffffffffffffffffff021916908373ffffffffffffffffffffffffffffffffffffffff1602179055508260018190555081600281905550806003819055505f6004819055505050506101c6565b5f5ffd5b5f819050919050565b61015581610143565b811461015f575f5ffd5b50565b5f815190506101708161014c565b92915050565b5f5f5f6060848603121561018d5761018c61013f565b5b5f61019a86828701610162565b93505060206101ab86828701610162565b92505060406101bc86828701610162565b9150509250925092565b611a16806101d35f395ff3fe608060405260043610610138575f3560e01c806366805de5116100aa578063b688a3631161006e578063b688a3631461045f578063bab2f55214610469578063bf4386a014610493578063d7bb99ba146104bd578063db2e21bc146104c7578063f986026d146104dd57610178565b806366805de51461038f57806392c59082146103a5578063997072f7146103cf5780639eab5253146103f9578063a230c5241461042357610178565b80635adca4f1116100fc5780635adca4f1146102815780635bec4cb4146102ab5780635c975abb146102d55780635daf08ca146102ff5780635fa0b65f1461033b578063612032651461036557610178565b806316c38b3c146101b3578063194e36f5146101db5780631db190cb146102055780633d863253146102415780635026d63e1461025757610178565b36610178576040517f08c379a000000000000000000000000000000000000000000000000000000000815260040161016f90611469565b60405180910390fd5b6040517f08c379a00000000000000000000000000000000000000000000000000000000081526004016101aa906114d1565b60405180910390fd5b3480156101be575f5ffd5b506101d960048036038101906101d49190611528565b610519565b005b3480156101e6575f5ffd5b506101ef6105f1565b6040516101fc9190611592565b60405180910390f35b348015610210575f5ffd5b5061022b600480360381019061022691906115d5565b610659565b6040516102389190611618565b60405180910390f35b34801561024c575f5ffd5b5061025561066e565b005b348015610262575f5ffd5b5061026b610705565b6040516102789190611618565b60405180910390f35b34801561028c575f5ffd5b5061029561070b565b6040516102a29190611640565b60405180910390f35b3480156102b6575f5ffd5b506102bf61071e565b6040516102cc9190611618565b60405180910390f35b3480156102e0575f5ffd5b506102e9610724565b6040516102f69190611640565b60405180910390f35b34801561030a575f5ffd5b5061032560048036038101906103209190611683565b610736565b6040516103329190611592565b60405180910390f35b348015610346575f5ffd5b5061034f610771565b60405161035c9190611618565b60405180910390f35b348015610370575f5ffd5b50610379610777565b6040516103869190611592565b60405180910390f35b34801561039a575f5ffd5b506103a361079b565b005b3480156103b0575f5ffd5b506103b961093d565b6040516103c69190611640565b60405180910390f35b3480156103da575f5ffd5b506103e3610a04565b6040516103f09190611618565b60405180910390f35b348015610404575f5ffd5b5061040d610a10565b60405161041a9190611765565b60405180910390f35b34801561042e575f5ffd5b50610449600480360381019061044491906115d5565b610a9b565b6040516104569190611640565b60405180910390f35b610467610ab8565b005b348015610474575f5ffd5b5061047d610da6565b60405161048a9190611618565b60405180910390f35b34801561049e575f5ffd5b506104a7610dac565b6040516104b49190611618565b60405180910390f35b6104c5610db2565b005b3480156104d2575f5ffd5b506104db610fbe565b005b3480156104e8575f5ffd5b5061050360048036038101906104fe9190611683565b611202565b6040516105109190611640565b60405180910390f35b5f5f9054906101000a900473ffffffffffffffffffffffffffffffffffffffff1673ffffffffffffffffffffffffffffffffffffffff163373ffffffffffffffffffffffffffffffffffffffff161461059e576040517f6998f9d900000000000000000000000000000000000000000000000000000000815260040160405180910390fd5b8060055f6101000a81548160ff0219169083151502179055507fbd466af87c4fabd1fa3d061817020a39c29d7986649f582f9f405c8eb8aa7c0b816040516105e69190611640565b60405180910390a150565b5f5f60068054905003610606575f9050610656565b6006808054905060045461061a91906117b2565b8154811061062b5761062a6117e2565b5b905f5260205f20015f9054906101000a900473ffffffffffffffffffffffffffffffffffffffff1690505b90565b6008602052805f5260405f205f915090505481565b60055f9054906101000a900460ff16156106b4576040517ff82a9cca00000000000000000000000000000000000000000000000000000000815260040160405180910390fd5b600560019054906101000a900460ff16156106fb576040517f15376e6c00000000000000000000000000000000000000000000000000000000815260040160405180910390fd5b61070361121f565b565b600a5481565b600560019054906101000a900460ff1681565b60025481565b60055f9054906101000a900460ff1681565b60068181548110610745575f80fd5b905f5260205f20015f915054906101000a900473ffffffffffffffffffffffffffffffffffffffff1681565b60015481565b5f5f9054906101000a900473ffffffffffffffffffffffffffffffffffffffff1681565b5f5f9054906101000a900473ffffffffffffffffffffffffffffffffffffffff1673ffffffffffffffffffffffffffffffffffffffff163373ffffffffffffffffffffffffffffffffffffffff1614610820576040517f6998f9d900000000000000000000000000000000000000000000000000000000815260040160405180910390fd5b600560019054906101000a900460ff1615610867576040517f15376e6c00000000000000000000000000000000000000000000000000000000815260040160405180910390fd5b5f600680549050116108ae576040517f08c379a00000000000000000000000000000000000000000000000000000000081526004016108a590611859565b60405180910390fd5b5f60068054905090508060045410156108f3576040517f748bbadb00000000000000000000000000000000000000000000000000000000815260040160405180910390fd5b6001600560016101000a81548160ff0219169083151502179055507fd9fd1a29efbd67e74bbcd110e7344e0a2fbc8efd8334b946c1b805670d8d08ea60405160405180910390a150565b5f5f60068054905003610952575f9050610a01565b5f5f90505b6006805490508110156109fb5760045460085f6006848154811061097e5761097d6117e2565b5b905f5260205f20015f9054906101000a900473ffffffffffffffffffffffffffffffffffffffff1673ffffffffffffffffffffffffffffffffffffffff1673ffffffffffffffffffffffffffffffffffffffff1681526020019081526020015f2054116109ee575f915050610a01565b8080600101915050610957565b50600190505b90565b5f600680549050905090565b60606006805480602002602001604051908101604052809291908181526020018280548015610a9157602002820191905f5260205f20905b815f9054906101000a900473ffffffffffffffffffffffffffffffffffffffff1673ffffffffffffffffffffffffffffffffffffffff1681526020019060010190808311610a48575b5050505050905090565b6007602052805f5260405f205f915054906101000a900460ff1681565b60055f9054906101000a900460ff1615610afe576040517ff82a9cca00000000000000000000000000000000000000000000000000000000815260040160405180910390fd5b600560019054906101000a900460ff1615610b45576040517f15376e6c00000000000000000000000000000000000000000000000000000000815260040160405180910390fd5b60035460068054905010610b85576040517f9e80781c00000000000000000000000000000000000000000000000000000000815260040160405180910390fd5b60075f3373ffffffffffffffffffffffffffffffffffffffff1673ffffffffffffffffffffffffffffffffffffffff1681526020019081526020015f205f9054906101000a900460ff1615610c06576040517f810074be00000000000000000000000000000000000000000000000000000000815260040160405180910390fd5b6001543414610c41576040517f2c5211c600000000000000000000000000000000000000000000000000000000815260040160405180910390fd5b600633908060018154018082558091505060019003905f5260205f20015f9091909190916101000a81548173ffffffffffffffffffffffffffffffffffffffff021916908373ffffffffffffffffffffffffffffffffffffffff160217905550600160075f3373ffffffffffffffffffffffffffffffffffffffff1673ffffffffffffffffffffffffffffffffffffffff1681526020019081526020015f205f6101000a81548160ff021916908315150217905550600160085f3373ffffffffffffffffffffffffffffffffffffffff1673ffffffffffffffffffffffffffffffffffffffff1681526020019081526020015f208190555034600a5f828254610d4a91906118a4565b925050819055503373ffffffffffffffffffffffffffffffffffffffff167f7f3b9effe05cfb4f31f854004de03199fd03fe56bf38a48b2aa9a9f4402d6e23600680549050604051610d9c9190611618565b60405180910390a2565b60045481565b60035481565b60055f9054906101000a900460ff1615610df8576040517ff82a9cca00000000000000000000000000000000000000000000000000000000815260040160405180910390fd5b600560019054906101000a900460ff1615610e3f576040517f15376e6c00000000000000000000000000000000000000000000000000000000815260040160405180910390fd5b60075f3373ffffffffffffffffffffffffffffffffffffffff1673ffffffffffffffffffffffffffffffffffffffff1681526020019081526020015f205f9054906101000a900460ff16610ebf576040517f291fc44200000000000000000000000000000000000000000000000000000000815260040160405180910390fd5b6001543414610efa576040517f2c5211c600000000000000000000000000000000000000000000000000000000815260040160405180910390fd5b6001600454610f0991906118a4565b60085f3373ffffffffffffffffffffffffffffffffffffffff1673ffffffffffffffffffffffffffffffffffffffff1681526020019081526020015f208190555034600a5f828254610f5b91906118a4565b925050819055503373ffffffffffffffffffffffffffffffffffffffff167fd2dff949d20e874cc6ba1dcefb840fb8cf6000a4197bfb69accfea5a32443ff534600454604051610fac9291906118d7565b60405180910390a2610fbc61121f565b565b5f5f9054906101000a900473ffffffffffffffffffffffffffffffffffffffff1673ffffffffffffffffffffffffffffffffffffffff163373ffffffffffffffffffffffffffffffffffffffff1614611043576040517f6998f9d900000000000000000000000000000000000000000000000000000000815260040160405180910390fd5b600560019054906101000a900460ff16611089576040517f15376e6c00000000000000000000000000000000000000000000000000000000815260040160405180910390fd5b5f600a54036110c4576040517f67e3990d00000000000000000000000000000000000000000000000000000000815260040160405180910390fd5b5f600a5490505f600a819055505f5f5f9054906101000a900473ffffffffffffffffffffffffffffffffffffffff1673ffffffffffffffffffffffffffffffffffffffff16826040516111169061192b565b5f6040518083038185875af1925050503d805f8114611150576040519150601f19603f3d011682016040523d82523d5f602084013e611155565b606091505b5050905080611190576040517f90b8ec1800000000000000000000000000000000000000000000000000000000815260040160405180910390fd5b5f5f9054906101000a900473ffffffffffffffffffffffffffffffffffffffff1673ffffffffffffffffffffffffffffffffffffffff167f5fafa99d0643513820be26656b45130b01e1c03062e1266bf36f88cbd3bd9695836040516111f69190611618565b60405180910390a25050565b6009602052805f5260405f205f915054906101000a900460ff1681565b61122761093d565b1561140d575f60068054905090508060045410611244575061140d565b5f60068260045461125591906117b2565b81548110611266576112656117e2565b5b905f5260205f20015f9054906101000a900473ffffffffffffffffffffffffffffffffffffffff1690505f600a5490505f600a8190555060045f8154809291906112af9061193f565b91905055505f8273ffffffffffffffffffffffffffffffffffffffff16826040516112d99061192b565b5f6040518083038185875af1925050503d805f8114611313576040519150601f19603f3d011682016040523d82523d5f602084013e611318565b606091505b50509050806113715781600a8190555060045f81548092919061133a90611986565b91905055506040517f90b8ec1800000000000000000000000000000000000000000000000000000000815260040160405180910390fd5b8273ffffffffffffffffffffffffffffffffffffffff167f096e196e637d37bc3047a3f191bf831742d7529c4d6bae0d8811a5ebf5ee09678360016004546113b991906119ad565b6040516113c79291906118d7565b60405180910390a27f6b54bb8a639e8efe63a9d057f0aa10852353313a88b8e18bfc5d227f4eb248766004546040516114009190611618565b60405180910390a1505050505b565b5f82825260208201905092915050565b7f557365206a6f696e2829206f7220636f6e7472696275746528290000000000005f82015250565b5f611453601a8361140f565b915061145e8261141f565b602082019050919050565b5f6020820190508181035f83015261148081611447565b9050919050565b7f496e76616c69642063616c6c00000000000000000000000000000000000000005f82015250565b5f6114bb600c8361140f565b91506114c682611487565b602082019050919050565b5f6020820190508181035f8301526114e8816114af565b9050919050565b5f5ffd5b5f8115159050919050565b611507816114f3565b8114611511575f5ffd5b50565b5f81359050611522816114fe565b92915050565b5f6020828403121561153d5761153c6114ef565b5b5f61154a84828501611514565b91505092915050565b5f73ffffffffffffffffffffffffffffffffffffffff82169050919050565b5f61157c82611553565b9050919050565b61158c81611572565b82525050565b5f6020820190506115a55f830184611583565b92915050565b6115b481611572565b81146115be575f5ffd5b50565b5f813590506115cf816115ab565b92915050565b5f602082840312156115ea576115e96114ef565b5b5f6115f7848285016115c1565b91505092915050565b5f819050919050565b61161281611600565b82525050565b5f60208201905061162b5f830184611609565b92915050565b61163a816114f3565b82525050565b5f6020820190506116535f830184611631565b92915050565b61166281611600565b811461166c575f5ffd5b50565b5f8135905061167d81611659565b92915050565b5f60208284031215611698576116976114ef565b5b5f6116a58482850161166f565b91505092915050565b5f81519050919050565b5f82825260208201905092915050565b5f819050602082019050919050565b6116e081611572565b82525050565b5f6116f183836116d7565b60208301905092915050565b5f602082019050919050565b5f611713826116ae565b61171d81856116b8565b9350611728836116c8565b805f5b8381101561175857815161173f88826116e6565b975061174a836116fd565b92505060018101905061172b565b5085935050505092915050565b5f6020820190508181035f83015261177d8184611709565b905092915050565b7f4e487b71000000000000000000000000000000000000000000000000000000005f52601260045260245ffd5b5f6117bc82611600565b91506117c783611600565b9250826117d7576117d6611785565b5b828206905092915050565b7f4e487b71000000000000000000000000000000000000000000000000000000005f52603260045260245ffd5b7f4e6f206d656d62657273000000000000000000000000000000000000000000005f82015250565b5f611843600a8361140f565b915061184e8261180f565b602082019050919050565b5f6020820190508181035f83015261187081611837565b9050919050565b7f4e487b71000000000000000000000000000000000000000000000000000000005f52601160045260245ffd5b5f6118ae82611600565b91506118b983611600565b92508282019050808211156118d1576118d0611877565b5b92915050565b5f6040820190506118ea5f830185611609565b6118f76020830184611609565b9392505050565b5f81905092915050565b50565b5f6119165f836118fe565b915061192182611908565b5f82019050919050565b5f6119358261190b565b9150819050919050565b5f61194982611600565b91507fffffffffffffffffffffffffffffffffffffffffffffffffffffffffffffffff820361197b5761197a611877565b5b600182019050919050565b5f61199082611600565b91505f82036119a2576119a1611877565b5b600182039050919050565b5f6119b782611600565b91506119c283611600565b92508282039050818111156119da576119d9611877565b5b9291505056fea2646970667358221220c6ff30269866a29f085d7f4a430e711c9b7b6054323acd0fbd38755d6331682664736f6c634300081c0033",
  "linkReferences": {},
  "deployedLinkReferences": {},
  "immutableReferences": {},
  "inputSourceName": "project/contracts/WomenSavingsPool.sol",
  "buildInfoId": "solc-0_8_28-9ea2fa7b1603fd2df618ae3acb7426c40dc2c544"
}